{
  "_format": "hh-sol-artifact-1",
  "contractName": "DutchAuction",
  "sourceName": "contracts/DutchAuction.sol",
  "abi": [
    {
      "inputs": [
        {
          "internalType": "uint256",
          "name": "_startingPrice",
          "type": "uint256"
        },
        {
          "internalType": "uint256",
          "name": "_discountRate",
          "type": "uint256"
        },
        {
          "internalType": "string",
          "name": "_item",
          "type": "string"
        }
      ],
      "stateMutability": "nonpayable",
      "type": "constructor"
    },
    {
      "anonymous": false,
      "inputs": [
        {
          "indexed": false,
          "internalType": "uint256",
          "name": "price",
          "type": "uint256"
        },
        {
          "indexed": false,
          "internalType": "address",
          "name": "buyer",
          "type": "address"
        }
      ],
      "name": "Bought",
      "type": "event"
    },
    {
      "inputs": [],
      "name": "buy",
      "outputs": [],
      "stateMutability": "payable",
      "type": "function"
    },
    {
      "inputs": [],
      "name": "discountRate",
      "outputs": [
        {
          "internalType": "uint256",
          "name": "",
          "type": "uint256"
        }
      ],
      "stateMutability": "view",
      "type": "function"
    },
    {
      "inputs": [],
      "name": "endsAt",
      "outputs": [
        {
          "internalType": "uint256",
          "name": "",
          "type": "uint256"
        }
      ],
      "stateMutability": "view",
      "type": "function"
    },
    {
      "inputs": [],
      "name": "getPrice",
      "outputs": [
        {
          "internalType": "uint256",
          "name": "",
          "type": "uint256"
        }
      ],
      "stateMutability": "view",
      "type": "function"
    },
    {
      "inputs": [],
      "name": "item",
      "outputs": [
        {
          "internalType": "string",
          "name": "",
          "type": "string"
        }
      ],
      "stateMutability": "view",
      "type": "function"
    },
    {
      "inputs": [],
      "name": "nextBlock",
      "outputs": [],
      "stateMutability": "nonpayable",
      "type": "function"
    },
    {
      "inputs": [],
      "name": "seller",
      "outputs": [
        {
          "internalType": "address payable",
          "name": "",
          "type": "address"
        }
      ],
      "stateMutability": "view",
      "type": "function"
    },
    {
      "inputs": [],
      "name": "startAt",
      "outputs": [
        {
          "internalType": "uint256",
          "name": "",
          "type": "uint256"
        }
      ],
      "stateMutability": "view",
      "type": "function"
    },
    {
      "inputs": [],
      "name": "startingPrice",
      "outputs": [
        {
          "internalType": "uint256",
          "name": "",
          "type": "uint256"
        }
      ],
      "stateMutability": "view",
      "type": "function"
    },
    {
      "inputs": [],
      "name": "stopped",
      "outputs": [
        {
          "internalType": "bool",
          "name": "",
          "type": "bool"
        }
      ],
      "stateMutability": "view",
      "type": "function"
    }
  ],
  "bytecode": "0x6101206040523480156200001257600080fd5b50604051620010fd380380620010fd833981810160405281019062000038919062000251565b6202a30082620000499190620003d6565b8310156200008e576040517f08c379a00000000000000000000000000000000000000000000000000000000081526004016200008590620002e7565b60405180910390fd5b3373ffffffffffffffffffffffffffffffffffffffff1660808173ffffffffffffffffffffffffffffffffffffffff1660601b815250508260a081815250508161010081815250504260c081815250506202a30042620000ef919062000379565b60e0818152505080600090805190602001906200010e92919062000118565b50505050620005c4565b828054620001269062000477565b90600052602060002090601f0160209004810192826200014a576000855562000196565b82601f106200016557805160ff191683800117855562000196565b8280016001018555821562000196579182015b828111156200019557825182559160200191906001019062000178565b5b509050620001a59190620001a9565b5090565b5b80821115620001c4576000816000905550600101620001aa565b5090565b6000620001df620001d98462000332565b62000309565b905082815260208101848484011115620001f857600080fd5b6200020584828562000441565b509392505050565b600082601f8301126200021f57600080fd5b815162000231848260208601620001c8565b91505092915050565b6000815190506200024b81620005aa565b92915050565b6000806000606084860312156200026757600080fd5b600062000277868287016200023a565b93505060206200028a868287016200023a565b925050604084015167ffffffffffffffff811115620002a857600080fd5b620002b6868287016200020d565b9150509250925092565b6000620002cf600e8362000368565b9150620002dc8262000581565b602082019050919050565b600060208201905081810360008301526200030281620002c0565b9050919050565b60006200031562000328565b9050620003238282620004ad565b919050565b6000604051905090565b600067ffffffffffffffff82111562000350576200034f62000541565b5b6200035b8262000570565b9050602081019050919050565b600082825260208201905092915050565b6000620003868262000437565b9150620003938362000437565b9250827fffffffffffffffffffffffffffffffffffffffffffffffffffffffffffffffff03821115620003cb57620003ca620004e3565b5b828201905092915050565b6000620003e38262000437565b9150620003f08362000437565b9250817fffffffffffffffffffffffffffffffffffffffffffffffffffffffffffffffff04831182151516156200042c576200042b620004e3565b5b828202905092915050565b6000819050919050565b60005b838110156200046157808201518184015260208101905062000444565b8381111562000471576000848401525b50505050565b600060028204905060018216806200049057607f821691505b60208210811415620004a757620004a662000512565b5b50919050565b620004b88262000570565b810181811067ffffffffffffffff82111715620004da57620004d962000541565b5b80604052505050565b7f4e487b7100000000000000000000000000000000000000000000000000000000600052601160045260246000fd5b7f4e487b7100000000000000000000000000000000000000000000000000000000600052602260045260246000fd5b7f4e487b7100000000000000000000000000000000000000000000000000000000600052604160045260246000fd5b6000601f19601f8301169050919050565b7f707269636520746f6f206c6f7721000000000000000000000000000000000000600082015250565b620005b58162000437565b8114620005c157600080fd5b50565b60805160601c60a05160c05160e05161010051610ace6200062f600039600081816102f301526105bb01526000818161023501526103a30152600081816102c20152610573015260008181610321015261059701526000818161021101526104b50152610ace6000f3fe6080604052600436106100915760003560e01c8063a6f2ae3a11610059578063a6f2ae3a14610159578063c744656514610163578063d6fbf2021461018e578063e6c0e6d5146101b9578063f2a4a82e146101e457610091565b806308551a53146100965780630a09284a146100c157806375f12b21146100ec57806383788fce1461011757806398d5fdca1461012e575b600080fd5b3480156100a257600080fd5b506100ab61020f565b6040516100b89190610749565b60405180910390f35b3480156100cd57600080fd5b506100d6610233565b6040516100e39190610801565b60405180910390f35b3480156100f857600080fd5b50610101610257565b60405161010e9190610764565b60405180910390f35b34801561012357600080fd5b5061012c61026a565b005b34801561013a57600080fd5b5061014361026c565b6040516101509190610801565b60405180910390f35b610161610351565b005b34801561016f57600080fd5b50610178610571565b6040516101859190610801565b60405180910390f35b34801561019a57600080fd5b506101a3610595565b6040516101b09190610801565b60405180910390f35b3480156101c557600080fd5b506101ce6105b9565b6040516101db9190610801565b60405180910390f35b3480156101f057600080fd5b506101f96105dd565b604051610206919061077f565b60405180910390f35b7f000000000000000000000000000000000000000000000000000000000000000081565b7f000000000000000000000000000000000000000000000000000000000000000081565b600160009054906101000a900460ff1681565b565b6000600160009054906101000a900460ff16156102be576040517f08c379a00000000000000000000000000000000000000000000000000000000081526004016102b5906107e1565b60405180910390fd5b60007f0000000000000000000000000000000000000000000000000000000000000000426102ec91906108bb565b90506000817f000000000000000000000000000000000000000000000000000000000000000061031c9190610861565b9050807f000000000000000000000000000000000000000000000000000000000000000061034a91906108bb565b9250505090565b600160009054906101000a900460ff16156103a1576040517f08c379a0000000000000000000000000000000000000000000000000000000008152600401610398906107e1565b60405180910390fd5b7f00000000000000000000000000000000000000000000000000000000000000004210610403576040517f08c379a00000000000000000000000000000000000000000000000000000000081526004016103fa906107c1565b60405180910390fd5b600061040d61026c565b905080341015610452576040517f08c379a0000000000000000000000000000000000000000000000000000000008152600401610449906107a1565b60405180910390fd5b6000813461046091906108bb565b905060008111156104b3573373ffffffffffffffffffffffffffffffffffffffff166108fc829081150290604051600060405180830381858888f193505050501580156104b1573d6000803e3d6000fd5b505b7f000000000000000000000000000000000000000000000000000000000000000073ffffffffffffffffffffffffffffffffffffffff166108fc479081150290604051600060405180830381858888f19350505050158015610519573d6000803e3d6000fd5b5060018060006101000a81548160ff0219169083151502179055507fc54c8cc1c7525b424ec71b685c00d9355581a280488018c22005332ceb2fd406823360405161056592919061081c565b60405180910390a15050565b7f000000000000000000000000000000000000000000000000000000000000000081565b7f000000000000000000000000000000000000000000000000000000000000000081565b7f000000000000000000000000000000000000000000000000000000000000000081565b600080546105ea9061097c565b80601f01602080910402602001604051908101604052809291908181526020018280546106169061097c565b80156106635780601f1061063857610100808354040283529160200191610663565b820191906000526020600020905b81548152906001019060200180831161064657829003601f168201915b505050505081565b61067481610901565b82525050565b610683816108ef565b82525050565b61069281610913565b82525050565b60006106a382610845565b6106ad8185610850565b93506106bd818560208601610949565b6106c681610a0c565b840191505092915050565b60006106de600883610850565b91506106e982610a1d565b602082019050919050565b6000610701600983610850565b915061070c82610a46565b602082019050919050565b6000610724601483610850565b915061072f82610a6f565b602082019050919050565b6107438161093f565b82525050565b600060208201905061075e600083018461066b565b92915050565b60006020820190506107796000830184610689565b92915050565b600060208201905081810360008301526107998184610698565b905092915050565b600060208201905081810360008301526107ba816106d1565b9050919050565b600060208201905081810360008301526107da816106f4565b9050919050565b600060208201905081810360008301526107fa81610717565b9050919050565b6000602082019050610816600083018461073a565b92915050565b6000604082019050610831600083018561073a565b61083e602083018461067a565b9392505050565b600081519050919050565b600082825260208201905092915050565b600061086c8261093f565b91506108778361093f565b9250817fffffffffffffffffffffffffffffffffffffffffffffffffffffffffffffffff04831182151516156108b0576108af6109ae565b5b828202905092915050565b60006108c68261093f565b91506108d18361093f565b9250828210156108e4576108e36109ae565b5b828203905092915050565b60006108fa8261091f565b9050919050565b600061090c8261091f565b9050919050565b60008115159050919050565b600073ffffffffffffffffffffffffffffffffffffffff82169050919050565b6000819050919050565b60005b8381101561096757808201518184015260208101905061094c565b83811115610976576000848401525b50505050565b6000600282049050600182168061099457607f821691505b602082108114156109a8576109a76109dd565b5b50919050565b7f4e487b7100000000000000000000000000000000000000000000000000000000600052601160045260246000fd5b7f4e487b7100000000000000000000000000000000000000000000000000000000600052602260045260246000fd5b6000601f19601f8301169050919050565b7f746f6f206c6f7721000000000000000000000000000000000000000000000000600082015250565b7f746f6f206c617465210000000000000000000000000000000000000000000000600082015250565b7f68617320616c72656164792073746f707065642100000000000000000000000060008201525056fea2646970667358221220507c69e1096564090e2f34fe90e6fd4698d36fcd5679d95f44200c8a3b1d9d9664736f6c63430008040033",
  "linkReferences": {},
  "deployedLinkReferences": {}
}